:020000040800F2
:100000000010002075220008F921000801220008D4
:1000100000000000000000000000000000000000E0
:10002000000000000000000000000000092200089D
:100030000000000000000000132200081D2200083C
:10004000C522000800000000C5220008C5220008E3
:10005000C5220008C5220008C5220008C5220008E4
:1000600000000000C5220008C5220008C5220008C3
:10007000C522000809200008C52200080000000071
:10008000C52200080000000000000000C522000892
:1000900000000000C5220008C5220008C522000893
:1000A00000000000C522000800000000C522000872
:1000B0000000000000000000000000000000000040
:1000C00010B5064C2378002B07D1054B002B02D02E
:1000D000044800E000BF0123237010BD0C00002085
:1000E0000000000020340008044B10B5002B03D0A2
:1000F0000349044800E000BF10BDC04600000000F6
:100100001000002020340008002243088B4274D3E2
:1001100003098B425FD3030A8B4244D3030B8B4208
:1001200028D3030C8B420DD3FF22090212BA030C11
:100130008B4202D31212090265D0030B8B4219D3F2
:1001400000E0090AC30B8B4201D3CB03C01A524112
:10015000830B8B4201D38B03C01A5241430B8B425A
:1001600001D34B03C01A5241030B8B4201D30B0343
:10017000C01A5241C30A8B4201D3CB02C01A52416A
:10018000830A8B4201D38B02C01A5241430A8B422D
:1001900001D34B02C01A5241030A8B4201D30B0216
:1001A000C01A5241CDD2C3098B4201D3CB01C01A30
:1001B000524183098B4201D38B01C01A524143093A
:1001C0008B4201D34B01C01A524103098B4201D328
:1001D0000B01C01A5241C3088B4201D3CB00C01A95
:1001E000524183088B4201D38B00C01A524143080D
:1001F0008B4201D34B00C01A5241411A00D2014632
:10020000524110467047FFE701B5002000F006F8A4
:1002100002BDC0460029F7D076E770477047C04658
:10022000844608006146FFE71FB500F0D1F90028B9
:1002300001D40021C8421FBD10B500F059F9404259
:10024000013010BD10B500F0C3F9002801DB00201B
:1002500010BD012010BDC04610B500F0B9F900284E
:1002600001DD002010BD012010BDC04610B500F01A
:1002700067F9002801DC002010BD012010BDC04638
:1002800010B500F05DF9002801DA002010BD012052
:1002900010BDC0469E2110B5C905041CFFF7F0FF34
:1002A000002803D1201C00F099FD10BD9E21201CC8
:1002B000C90500F02FFB00F091FD80231B069C4632
:1002C0006044F2E7F0B546464F46D6464502C0B513
:1002D000C30F470098460E1C6D0A3F0E5BD0FF2FE0
:1002E00021D08023ED00DB041D43002399469A466C
:1002F0007F3F74027300640A1B0EF60F002B20D0A0
:10030000FF2B43D080220020E400D20414437F3B23
:100310004246FF1A4B4672400F2B00D99DE07149AF
:100320009B00CB589F46002D5AD108239946063B87
:1003300074029A467300FF27640A1B0EF60F002B07
:10034000DED1002C3BD1012342464946724019437D
:100350000E2918D86448890041588F465346022B0D
:1003600000D1B8E0032B6ED042462C00012B40D1C7
:1003700000200024C0052043D2071043E0BCBA4649
:10038000B146A846F0BDFF200024F3E7002C20D1A1
:100390000223FF3FD8E7002D05D104239946033BF4
:1003A00000279A46A5E7280000F07EFD7627431F28
:1003B0009D4000237F4299469A463F1A99E72000C4
:1003C00000F072FD431F9C4076235B421B1A002005
:1003D0009EE703234A461A4391460320FC3397E7DE
:1003E0000C239946093BFF279A4682E703282CD025
:1003F000320038007F30002847DD630704D00F2328
:100400002340042B00D00434230103D53800374B9C
:1004100080301C40FE28B6DCA401640AC0B2A9E703
:1004200080240022FF20E403A4E78023DB031D4295
:1004300001D01C420BD08024E4032C4364024246CA
:10044000FF20640A96E746462C008023DB031C430A
:1004500064023200FF20640A8CE76D01600185426E
:100460002DD21B230024013F0126290064006D00CA
:10047000002901DB854201D32D1A3443013B002BB7
:10048000F3D16B1E9D412C43B3E701231B1A1B2B99
:1004900000DD6DE721009E37D940BC400B00611E96
:1004A0008C412343590704D00F211940042900D05F
:1004B0000433590113D49B0100205C0A5AE71A2324
:1004C00001242D1AD0E7981E434258414042320081
:1004D0000024C0B24EE74246FF2000244AE7012034
:1004E000002447E73834000878340008FFFFFFF79E
:1004F00070B542004E024C0045026D0A120EC30F49
:10050000760A240EC90FFF2A10D0FF2C0CD0012030
:10051000A2420AD1B54208D18B420FD0002A04D1A1
:100520002800431E984100E0012070BD0120FF2CEF
:10053000FBD13543F9D14B401800F6E70020F4E732
:1005400030B5420044024D02C30F4800640A120E47
:100550006D0A000EC90FFF2A18D0FF280AD0002A02
:100560001ED100280AD1002D29D0002C2DD1480001
:10057000013830BD002D25D1002A01D1002CF6D044
:100580008B4219D001205B421843F2E7002C19D1AD
:10059000FF28F7D1002D15D100208B42F2D1E8E7DA
:1005A0000028EFD08B42EDD18242EBDC04DBAC4281
:1005B000E8D80020AC42DCD258000138D9E7002C42
:1005C000D7D0DFE702204042D3E78B42DAD1EEE713
:1005D00030B5420044024D02C30F4800640A120EB7
:1005E0006D0A000EC90FFF2A17D0FF280AD0002A73
:1005F0001BD100280AD1002D1DD0002C2DD1480080
:10060000013811E0002D0ED1002A01D1002CF6D0C6
:100610008B420CD15800013806E0002C03D1FF2892
:1006200005D1002D15D0022030BD002806D10120B3
:100630005B421843F8E7002CF6D0F8E78B42F6D17E
:100640008242F4DCE6DBAC42F1D80020AC42EBD2D3
:10065000E0E700208B42EAD1E6E78B42E7D1F2E700
:10066000F0B54F464646D6464400C0B546020F1C7C
:10067000760A240EC50F002C00D1DAE0FF2C74D0CE
:100680008023F600DB041E43002399469A467F3CF4
:100690007B025B0A98467B001B0EFF0F002B74D079
:1006A000FF2B00D18EE042468021D200C9041143C5
:1006B0007F3B2A00E4184B467A408846D2B20A2B88
:1006C00075DC4B460020022B0FDD494601238B4091
:1006D000A621C9000B4269D1902189000B4200D0AC
:1006E00000E18821194200D0F5E041460904090CD7
:1006F00043460800350C36041B0C360C7043694326
:100700005E435D437618030C9B19994203D98021FF
:1007100049028C46654400041904000C09188E0136
:10072000701E86411B0C890E5B190E439B011E43F4
:100730001B016CD423007F33002B00DCB1E01500DB
:1007400071070BD00F2021003040042806D004365A
:10075000320103D56E4B1E400B008033FE2B00DDB3
:10076000BDE0B201520ADBB248E0002E00D092E0B8
:1007700008239946063B9A467B025B0A98467B0013
:10078000FF241B0EFF0F002B8AD14246002A64D1A2
:1007900049460132114389460A2908DC7D4001207F
:1007A000EAB2022991DC1500002227E01500534629
:1007B000022B00D193E0032B1AD0012B2CD1002364
:1007C00000221BE04346FF34002B55D003214B464B
:1007D0000B4319000A2B00DC92E00F2B00D08CE0B9
:1007E0008022D203164203D04346134200D17DE05B
:1007F0008022D20332435202520AFF23D805ED076A
:1008000010432843E0BCBA46B146A846F0BD0123D8
:10081000150071081E400E4323008033611C002B1D
:1008200041DD720794D00F223240042A00D08EE7B7
:100830008EE7002E05D104239946033B00249A46F7
:1008400026E7300000F030FB7624431F9E40002353
:10085000644299469A46241A1AE7404600F024FB5F
:100860004B46241A763C0A2BA1DC434605388340CC
:100870007D409846EAB224E74A46023313432A00F1
:100880007A40D2B20A2B92DC49461500002926D0C4
:100890009946022019E70C239946093BFF249A4602
:1008A000F6E6150021000122D31A1B2B00DD86E796
:1008B0009E3132008E40DA40731E9E413243530710
:1008C00004D00F231340042B00D00432530110D561
:1008D0000123002292E73D004646824667E7FF2358
:1008E00000228BE780220025D20386E73D001A43D1
:1008F00083E792010023520A80E73D00464677E7EE
:100900002A0001237A408B400320D2B2E9E6C04698
:10091000FFFFFFF7F8B54746CE46430280B55F0AB2
:100920009B0945004A009C464B02C40FCE0F2D0E7A
:10093000580A120E9909FF2A6BD001235E40AB1AA8
:10094000B4424BD0002B00DCFFE0002A00D188E04D
:10095000FF2D00D1EFE08022D204114301201B2B98
:1009600008DC08002022D840D31A99400B005A1EF8
:100970009341184363461B1A9C4663465B0100D4AF
:10098000CDE063469F01BF09380000F08DFA3B00BF
:1009900005388340854200DCA2E0B74A2D1A1A4090
:1009A00094465A0700D1C3E00F221340042B00D114
:1009B000BEE004239846C44463465B0100D4B7E01C
:1009C000681CFE2D00D0A5E0FF200022C0051043CA
:1009D000E4072043C0BCB946B046F8BD002B00DC9C
:1009E000EBE1002A46D0FF2D00D1A4E08022D20402
:1009F00011431B2B00DCFBE0052398462B00C4446D
:100A00006246D708FF2B00D195E07A02520AD8B28D
:100A1000DCE72B00FF3B9946002918D101235E40FB
:100A2000B44200D1CAE04B46002B2DD0002D00D09F
:100A30003CE1FF236446002C00D15FE15D1E012BE9
:100A400000D174E13400FF2B74D02B0003E1B442D9
:100A500000D19CE0002B17D0002DEAD00700340015
:100A60006CE00029CCD05A1E012B2BD0FF2B62D07A
:100A7000130073E70029C3D05A1E012B00D11EE1D9
:100A8000FF2B58D01300B4E7FE226B1C1A420DD185
:100A9000002D60D06346002B00D020E1002900D05B
:100AA00028E180220024FF20D2038FE763465F1AEB
:100AB0007B0100D5FEE0002F00D065E70024002078
:100AC000002283E76346591A4B0100D419E18F01D4
:100AD000BF09380000F0E8F93B00053883400125E4
:100AE0002022401B0130121A19009340C1405A1EA7
:100AF000934119438C460B1EE1D05B0700D152E1B4
:100B00000F2300250B40042B00D052E701204A019F
:100B100000D492E0C0B263469A01520A56E7634697
:100B20005B0705D00F2362461340042B00D040E73B
:100B30002B0065E70700002F00D145E78022D20394
:100B40003A435202FF20520A40E7002B79D1FE229D
:100B50006B1C1A42AAD16346002B00D1F5E0002994
:100B600000D1D1E05F1A8023DB041F4200D10EE1E7
:100B7000624601248A1A944600203440002A00D19B
:100B800024E701201A42C6D10023D7083DE7002BF5
:100B900017D0002D00D0AFE0FF236546002D00D117
:100BA000ADE05E1E012B00D189E0FF2BC2D01B2ED1
:100BB00000DCABE04B1D9C46130021E74B46002BAD
:100BC00070D1FE226B1C1A425ED1002D00D0C3E012
:100BD0006346002B00D1D0E0002900D194E00A0048
:100BE0006244530100D4D8E092010120520AEDE69C
:100BF00008002022D840D31A99400B005A1E934176
:100C000003439C4463465B0189D50135FF2D00D128
:100C1000DAE6624601231949134052080A401A4392
:100C2000130094465B0704D00F231340042B00D01D
:100C3000BFE663465B0100D5C2E66346DF082B00D2
:100C4000E3E6531B002D00D1F4E680206446C00487
:100C50000443A446340001201B2B09DC20256046F8
:100C6000D840EB1A65469D402B005D1EAB411843F2
:100C70000B1A9C46150080E6FFFFFFFBFFFFFF7D80
:100C8000FE226B1C1342A3D0FF2B00D19CE66144D3
:100C900049084A0749D00F220A40042A45D00A1DB4
:100CA0009446ADE6002D00D176E78DE63400FF20B6
:100CB00000228BE663460124CF1A344064E6614487
:100CC0004B016DD548084449014043072CD00F2300
:100CD0000340042B28D00B1D9C46022390E60029DC
:100CE00000D12BE78023DB039F4200D226E7984206
:100CF00000D323E70124344007001FE734008C466B
:100D00007EE60123CF0880E600237EE620206546AC
:100D1000801B854063462800F340451EA8410343DD
:100D20009C4615008C446DE70223CF086DE60F1B2F
:100D30007B0128D5BF01BF09380000F0B5F83B00A2
:100D40000538834034000125CAE6002900D1B5E604
:100D500001240700344058E66346002B00D1E9E641
:100D6000002900D1EAE68023DB039F4200D2E5E6BA
:100D7000984200D3E2E60700E0E6002900D19EE6B3
:100D80000023CF0841E634000123FF083DE6002F91
:100D900000D193E60023FF0837E60023D70834E6A6
:100DA0000123CF0831E680220B00D204012013403A
:100DB000114200D0AEE6CF0827E6002B00D15FE756
:100DC000561B002D01D13300E7E680236046DB048B
:100DD00018438446EBE6C046FFFFFF7D4102420018
:100DE000C30F490A0020120E7E2A03DD9D2A02DD70
:100DF000094A98187047802000040143952A07DCAF
:100E00009620821AD1404842002BF3D10800F1E726
:100E1000963A9140F7E7C046FFFFFF7F10B5041EEA
:100E20000DD000F041F89E231B1A962B0CDC0828ED
:100E300034D0083884406402640AD8B201E000204B
:100E40000024C005204310BD992B13DC421F9440A1
:100E5000144A224061071CD00F212140042918D0D8
:100E60000432D408520115D59F236402181A640A6B
:100E7000C0B2E6E7020021001B3291400A00511E79
:100E80008A410521091ACC401443064A22406107D1
:100E9000E2D1D4086402640AD8B2D2E76402640AD8
:100EA0008E30CEE7FFFFFFFB1C2101231B0498427D
:100EB00001D3000C10391B0A984201D3000A0839EB
:100EC0001B09984201D30009043902A2105C4018A2
:100ED0007047C04604030202010101010000000046
:100EE0000000000003008218934200D1704719707F
:100EF0000133F9E770B500260C4C0D4D641BA410AE
:100F0000A64209D1002602F08BFA0A4C0A4D641B56
:100F1000A410A64205D170BDB300EB589847013626
:100F2000EEE7B300EB5898470136F2E7EC340008DF
:100F3000EC340008F0340008EC34000880B500AF51
:100F4000C046BD4680BD000080B588B000AF786067
:100F50007B68002B01D1012301E37B681B68012220
:100F6000134000D18DE0C34B5B680C221340042B6F
:100F70000ED0C04B5B680C221340082B16D1BD4B22
:100F80005A6880235B021A4080235B029A420DD18B
:100F9000B84B1A6880239B02134000D170E07B6835
:100FA0005B68002B00D06BE00123D8E27B685B68B4
:100FB000012B07D1AF4B1A68AE4B802149020A437F
:100FC0001A602FE07B685B68002B0CD1A94B1A6874
:100FD000A84BA9490A401A60A64B1A68A54BA74915
:100FE0000A401A601EE07B685B68052B0ED1A14B9E
:100FF0001A68A04B8021C9020A431A609D4B1A68E7
:101000009C4B802149020A431A600BE0994B1A68F5
:10101000984B99490A401A60964B1A68954B974924
:101020000A401A607B685B68002B14D000F044FC17
:101030000300BB6108E000F03FFC0200BB69D31A6B
:10104000642B01D903238AE28A4B1A6880239B020E
:101050001340F0D015E000F02FFC0300BB6108E066
:1010600000F02AFC0200BB69D31A642B01D90323C8
:1010700075E2804B1A6880239B021340F0D100E098
:10108000C0467B681B680222134000D169E0794B9F
:101090005B680C2213400BD0764B5B680C2213402C
:1010A000082B1CD1734B5A6880235B02134016D166
:1010B000704B1B680222134005D07B68DB68012B54
:1010C00001D001234BE26B4B1B68F82293431900BC
:1010D0007B681B69DA00674B0A431A6041E07B6852
:1010E000DB68002B24D0634B1A68624B01210A4352
:1010F0001A6000F0E1FB0300BB6108E000F0DCFBDC
:101100000200BB69D31A022B01D9032327E2594BF2
:101110001B6802221340F1D0564B1B68F822934300
:1011200019007B681B69DA00524B0A431A6018E009
:10113000504B1A684F4B01218A431A6000F0BCFBE8
:101140000300BB6108E000F0B7FB0200BB69D31AE3
:10115000022B01D9032302E2464B1B6802221340F3
:10116000F1D17B681B680822134036D07B68DB69AD
:10117000002B19D03F4B5A6A3E4B01210A435A6259
:1011800000F09AFB0300BB6108E000F095FB020051
:10119000BB69D31A022B01D90323E0E1354B5B6A0B
:1011A00002221340F1D018E0324B5A6A314B012130
:1011B0008A435A6200F080FB0300BB6108E000F044
:1011C0007BFB0200BB69D31A022B01D90323C6E1C2
:1011D000284B5B6A02221340F1D17B681B68042212
:1011E000134000D1B4E01F203B1800221A70214B9D
:1011F000DA6980235B05134010D11E4BDA691D4B61
:10120000802149050A43DA611A4BDA6980235B05BC
:101210001340FB60FB683B1801221A70184B1A68D8
:1012200080235B0013401AD1154B1A68144B8021A0
:1012300049000A431A6000F03FFB0300BB6108E06D
:1012400000F03AFB0200BB69D31A642B01D90323D7
:1012500085E10B4B1A6880235B001340F0D07B685C
:101260009B68012B0ED1034B1A6A024B01210A43E2
:101270001A6235E000100240FFFFFEFFFFFFFBFF98
:10128000007000407B689B68002B0CD1B64B1A6A3B
:10129000B54B01218A431A62B34B1A6AB24B04213F
:1012A0008A431A621CE07B689B68052B0CD1AE4B0D
:1012B0001A6AAD4B04210A431A62AB4B1A6AAA4B55
:1012C00001210A431A620BE0A74B1A6AA64B0121BF
:1012D0008A431A62A44B1A6AA34B04218A431A62F6
:1012E0007B689B68002B14D000F0E6FA0300BB611A
:1012F00009E000F0E1FA0200BB69D31A9B4A93426D
:1013000001D903232BE1984B1B6A02221340F0D032
:1013100013E000F0D1FA0300BB6109E000F0CCFA61
:101320000200BB69D31A914A934201D9032316E103
:101330008D4B1B6A02221340F0D11F23FB181B7830
:10134000012B05D1884BDA69874B89490A40DA615C
:101350007B681B681022134063D07B685B69012B9C
:101360002AD1814B5A6B804B04210A435A637E4B2E
:101370005A6B7D4B01210A435A6300F09DFA03002A
:10138000BB6108E000F098FA0200BB69D31A022B97
:1013900001D90323E3E0744B5B6B02221340F1D0CD
:1013A000714B5B6BF822934319007B689B69DA00F1
:1013B0006D4B0A435A6334E07B685B69053311D196
:1013C000694B5A6B684B04218A435A63664B5B6BCB
:1013D000F822934319007B689B69DA00624B0A4349
:1013E0005A631EE0604B5A6B5F4B04210A435A63F9
:1013F0005D4B5A6B5C4B01218A435A6300F05CFAE7
:101400000300BB6108E000F057FA0200BB69D31A81
:10141000022B01D90323A2E0534B5B6B0222134042
:10142000F1D17B681B6A002B00D197E04E4B5B68C3
:101430000C221340082B00D16BE07B681B6A022B47
:101440004CD1494B1A68484B4A490A401A6000F08F
:1014500033FA0300BB6108E000F02EFA0200BB691A
:10146000D31A022B01D9032379E03F4B1A6880235A
:101470009B041340F0D13C4BDB6A0F2293431900CD
:101480007B68DA6A384B0A43DA62374B5B683A4A60
:10149000134019007B689A6A7B685B6A1A43324B77
:1014A0000A435A60304B1A682F4B802149040A4383
:1014B0001A6000F001FA0300BB6108E000F0FCF9DB
:1014C0000200BB69D31A022B01D9032347E0264B44
:1014D0001A6880239B041340F0D03FE0224B1A6827
:1014E000214B24490A401A6000F0E6F90300BB6171
:1014F00008E000F0E1F90200BB69D31A022B01D920
:1015000003232CE0184B1A6880239B041340F0D16E
:1015100024E07B681B6A012B01D101231FE0124BE1
:101520005B687B61104BDB6A3B617A6980235B02FD
:101530001A407B685B6A9A420ED13B690F221A40BF
:101540007B68DB6A9A4207D17A69F0239B031A40D1
:101550007B689B6A9A4201D0012300E000231800B7
:10156000BD4608B080BDC046001002408813000090
:10157000FFFFFFEFFFFFFFFEFFFFC2FF80B584B05C
:1015800000AF786039607B68002B01D10123B3E0A4
:101590005B4B1B68012213403A689A4211D9584BA1
:1015A0001B68012293431900554B3A680A431A609D
:1015B000534B1B68012213403A689A4201D0012321
:1015C0009AE07B681B680222134015D07B681B6879
:1015D0000422134006D04B4B5A684A4BE021C90005
:1015E0000A435A60474B5B68F022934319007B68BB
:1015F0009A68444B0A435A607B681B680122134077
:1016000040D07B685B68012B07D13E4B1A68802372
:101610009B02134014D101236EE07B685B68022BB0
:1016200007D1384B1A6880239B04134008D101234B
:1016300062E0344B1B680222134001D101235BE0BE
:10164000304B5B680322934319007B685A682D4B2B
:101650000A435A6000F030F90300FB6009E000F033
:101660002BF90200FB68D31A274A934201D90323BE
:1016700042E0244B5B680C221A407B685B689B004D
:101680009A42ECD11E4B1B68012213403A689A42E1
:1016900011D21B4B1B68012293431900184B3A6867
:1016A0000A431A60164B1B68012213403A689A429B
:1016B00001D0012320E07B681B680422134009D07D
:1016C000104B5B68114A134019007B68DA680D4BB8
:1016D0000A435A6000F020F801000A4B5B681B09BE
:1016E0000F2213400A4AD35C0A00DA40094B1A6001
:1016F000032000F09BF800231800BD4604B080BD15
:10170000002002400010024088130000FFF8FFFF95
:10171000B43400080000002080B586B000AF00237C
:10172000FB600023BB6000237B6100237B60002300
:101730003B61204B5B68FB60FB680C221340042B71
:1017400002D0082B03D02CE01B4B3B612CE0FB6844
:101750009B0C0F221340194AD35C7B60154BDB6A4C
:101760000F221340164AD35CBB60FA6880235B02E9
:10177000134009D0B9681048FEF7C6FC03001A00F0
:101780007B6853437B6109E079680A005201521A71
:1017900093019B1ADB005B181B027B617B693B6139
:1017A00002E0054B3B61C0463B691800BD4606B0F0
:1017B00080BDC0460010024000127A00CC34000800
:1017C000DC34000880B500AF024B1B681800BD4632
:1017D00080BDC0460000002080B500AFFFF7F2FFDB
:1017E0000100064B5B681B0A07221340044AD35CC6
:1017F000D9400B001800BD4680BDC0460010024015
:10180000C434000880B500AF074B1A68064B10219E
:101810000A431A60032000F009F800F007FD0023D6
:101820001800BD4680BDC0460020024090B583B080
:1018300000AF7860144B1C68144B1B781900FA2316
:101840009800FEF761FC030019002000FEF75CFC25
:101850000300180000F0BDFA031E01D001230FE0C1
:101860007B68032B0BD8796801235B4200221800A8
:1018700000F08AFA064B7A681A60002300E0012320
:101880001800BD4603B090BD0000002008000020F5
:101890000400002080B500AF054B1B781A00054BF3
:1018A0001B68D218034B1A60C046BD4680BDC046B7
:1018B000080000202800002080B500AF024B1B6804
:1018C0001800BD4680BDC0462800002080B584B009
:1018D00000AF7860FFF7F0FF0300BB607B68FB6040
:1018E000FB68013305D00A4B1B781A00FB689B1874
:1018F000FB60C046FFF7E0FF0200BB68D31AFA683E
:101900009A42F7D8C046C046BD4604B080BDC04626
:101910000800002080B586B000AF786039600023F1
:101920007B614FE13B681B6801217A6991400A00A5
:101930001340FB60FB68002B00D140E13B685B6813
:1019400003221340012B05D03B685B680322134040
:10195000022B30D17B689B683B617B695B00032273
:101960009A401300DA433B6913403B613B68DA68F5
:101970007B695B009A4013003A6913433B617B68C3
:101980003A699A607B685B683B6101227B699A4097
:101990001300DA433B6913403B613B685B681B09FA
:1019A00001221A407B699A4013003A6913433B6154
:1019B0007B683A695A603B685B6803221340032BDB
:1019C00017D07B68DB683B617B695B0003229A4030
:1019D0001300DA433B6913403B613B689A687B69BB
:1019E0005B009A4013003A6913433B617B683A6994
:1019F000DA603B685B6803221340022B23D17B69CA
:101A0000DA087B6808329200D3583B617B69072271
:101A100013409B000F229A401300DA433B691340A6
:101A20003B613B681A697B6907210B409B009A4028
:101A300013003A6913433B617B69DA087B6808321B
:101A400092003969D1507B681B683B617B695B0000
:101A500003229A401300DA433B6913403B613B6821
:101A60005B6803221A407B695B009A4013003A6965
:101A700013433B617B683A691A603B685A68C0232C
:101A80009B02134000D19AE0544B9A69534B0121B9
:101A90000A439A61514B9B6901221340BB60BB68AA
:101AA0004F4A7B699B0802339B009B583B617B69D3
:101AB000032213409B000F229A401300DA433B6934
:101AC00013403B617A689023DB059A4213D07B6810
:101AD000444A93420DD07B68434A934207D07B68C7
:101AE000424A934201D1032306E0052304E0022386
:101AF00002E0012300E000237A6903210A409200FA
:101B000093403A6913433B6135497B699B08023333
:101B10009B003A695A50364B9B683B61FB68DA433D
:101B20003B6913403B613B685A6880235B03134069
:101B300003D03A69FB6813433B612D4B3A699A60C5
:101B40002B4BDB683B61FB68DA433B6913403B612D
:101B50003B685A6880239B03134003D03A69FB68B3
:101B600013433B61224B3A69DA60214B5B683B616E
:101B7000FB68DA433B6913403B613B685A6880234A
:101B80009B02134003D03A69FB6813433B61184B37
:101B90003A695A60164B1B683B61FB68DA433B6944
:101BA00013403B613B685A6880235B02134003D0BB
:101BB0003A69FB6813433B610D4B3A691A607B69D4
:101BC00001337B613B681A687B69DA40131E00D0E1
:101BD000A8E6C046C046BD4606B080BD0010024023
:101BE000000001400004004800080048000C0048C4
:101BF0000004014080B584B000AF78600A00BB1CCF
:101C00001A807B681B69BA1C1288134004D00F230A
:101C1000FB1801221A7003E00F23FB1800221A7030
:101C20000F23FB181B781800BD4604B080BD0000D0
:101C300080B582B000AF0200FB1D1A70FB1D1B783F
:101C40007F2B09D8FB1D1B781A001F231A40044B59
:101C5000012191400A001A60C046BD4602B080BD15
:101C600000E100E090B583B000AF02003960FB1DD9
:101C70001A70FB1D1B787F2B28D82F4AFB1D1B7861
:101C80005BB29B08C0339B009B58FA1D1278110071
:101C900003220A40D200FF2191400A00D2431A4099
:101CA00011003B689B01FF221A40FB1D1B781800A6
:101CB00003230340DB009A401F48FB1D1B785BB2E7
:101CC0009B080A43C0339B001A5031E01B4AFB1D9E
:101CD0001B7819000F230B40083B9B0806339B0021
:101CE000D31804331B68FA1D1278110003220A402E
:101CF000D200FF2191400A00D2431A4011003B68F4
:101D00009B01FF221A40FB1D1B7818000323034090
:101D1000DB009A400948FB1D1B781C000F23234061
:101D2000083B9B080A4306339B00C31804331A6020
:101D3000C046BD4603B090BD00E100E000ED00E00C
:101D400080B582B000AF78607B685A1E80235B0448
:101D50009A4201D3012310E00A4B7A68013A5A6093
:101D600001235B4203211800FFF77CFF054B002293
:101D70009A60044B07221A6000231800BD4602B087
:101D800080BDC04610E000E080B584B000AFB9600F
:101D90007A600F217B18021C1A70BA687B181B78B6
:101DA0005BB211001800FFF75DFFC046BD4604B0EE
:101DB00080BD80B582B000AF0200FB1D1A70FB1D14
:101DC0001B785BB21800FFF733FFC046BD4602B078
:101DD00080BD80B582B000AF78607B681800FFF7E7
:101DE000AFFF03001800BD4602B080BD90B583B0C0
:101DF00000AFFFF707FD00F0C3F900F05DF900F058
:101E000067F800F00DF92C4B0021180000F0B2FB30
:101E10002A4B0021180000F0AFFA284B04211800CB
:101E200000F0AAFA264B1B682649181CFEF74AFA4E
:101E3000031C1A1C244B1A60234B1B68FE218905C6
:101E4000181CFEF713FA031E03D01F4BFE22920547
:101E50001A601A4B1B68DB6A1800FEF7DFFF021CD2
:101E6000194B1B68191C101CFEF7FAFB031CBC1D48
:101E7000181CFEF70FFA03002380144B02211800F0
:101E8000FFF7B8FE0300012B09D10C4B1B68BA1DEC
:101E900012885A63094B1B6800229A6308E0074BBB
:101EA0001B6800225A63054B1B68BA1D12889A638F
:101EB0000A20FFF70BFDB5E72C000020740000207E
:101EC000C000002000504348C40000200004004827
:101ED00090B587B000AF244B9A69234B802109014C
:101EE0000A439A61204B9A6980231B0113407B604F
:101EF0007B681E4B1E4A1A601C4B00225A601B4B0B
:101F000000229A60194B1B4ADA60184B00221A61B2
:101F1000164B180000F0D6FA08243B1918001023BD
:101F20001A000021FEF7DEFF21007B1800221A6054
:101F30007B1801225A607B1800229A607B180022CD
:101F4000DA607918094B0022180000F003FD002226
:101F500000210D20FFF718FF0D20FFF72AFFC046D4
:101F6000BD4607B090BDC046001002402C000020C6
:101F7000002C0140FFFF000090B585B000AF7860F5
:101F80007B681B681C4A934231D17B680021180092
:101F900000F04AFE0300FB60184B1B68FA689A4287
:101FA00004D3164B1B68FA68D31A06E0134B1B6860
:101FB000FA68D31A124A94466344BB600F4BFA681E
:101FC0001A60BB68002B12D0FFF706FC0300180054
:101FD000FEF724FF041CB868FEF720FF031C191C41
:101FE000201CFEF76FF9031C1A1C064B1A60C04632
:101FF000BD4605B090BDC046002C0140BC0000208D
:10200000FFFF0000C000002080B500AF034B1800A8
:1020100000F0B2FBC046BD4680BDC0462C0000208B
:1020200080B588B000AF214BDA69204B02210A430A
:10203000DA611E4BDB69022213403B603B681C4B9C
:102040001C4A1A601A4B2F225A60194B00229A60C0
:10205000174B6422DA60164B00221A61144B1800E9
:1020600000F031F93B1D18001C231A000021FEF777
:1020700039FF3B1D60221A603B1D00225A603B1D48
:1020800000229A603B1D00221A61391D084B002274
:10209000180000F003FD391D054B0422180000F064
:1020A000FDFCC046BD4608B080BDC04600100240E1
:1020B000740000200004004090B589B000AF2E4BA2
:1020C0005A692D4B802189020A435A612A4B5A6969
:1020D00080239B021340BB60BB68274B5A69264B89
:1020E0008021C9020A435A61234B5A698023DB02CB
:1020F00013407B607B680C243B19180014231A00E2
:102100000021FEF7EFFE21007B18802252001A60AA
:102110000C003B1902225A603B1900229A603B19BD
:102120000022DA603B1902221A613A199023DB057A
:1021300011001800FFF7EEFB3B19C0221A603B1993
:1021400001221A613A199023DB0511001800FFF7EC
:10215000E1FB3B1902221A603B1900225A603B192D
:1021600000229A603B19054A19001000FFF7D2FBC4
:10217000C046BD4609B090BD0010024000040048B2
:1021800090B591B000AF10243B19180030231A000D
:102190000021FEF7A7FE3B00180010231A000021C3
:1021A000FEF7A0FE21007B1802221A607B18012294
:1021B000DA607B1802221A627B1800225A627B18AE
:1021C000A02292039A627B181800FEF7BDFE3B0026
:1021D00007221A603B0002225A603B0000229A60EC
:1021E0003B000022DA603B0001211800FFF7C6F92E
:1021F000C046BD4611B090BD80B500AFC046FDE7FA
:1022000080B500AFC046FDE780B500AFC046BD4613
:1022100080BD80B500AFC046BD4680BD80B500AF73
:10222000FFF738FBC046BD4680BD000080B582B0D8
:1022300000AF0F4B9A690E4B01210A439A610C4B78
:102240009B69012213407B607B68094BDA69084B6C
:10225000802149050A43DA61054BDA6980235B0571
:1022600013403B603B68C046BD4602B080BDC046DF
:10227000001002400D488546FEF760FE0C480D49EF
:102280000D4A002302E0D458C4500433C4188C42D1
:10229000F9D30A4A0A4C002301E013600432A24237
:1022A000FBD3FEF727FEFFF7A1FDFEE7001000209D
:1022B000000000200C000020F43400080C00002076
:1022C000C8000020FEE780B582B000AF78607B6870
:1022D000002B01D1012342E07B683D229B5CDBB2F5
:1022E000002B07D17B683C22002199547B681800A1
:1022F00000F039F87B683D22022199547B681A6806
:102300007B6804331900100000F0E2FC7B68462271
:10231000012199547B683E22012199547B683F2218
:10232000012199547B684022012199547B68412204
:10233000012199547B684222012199547B684322F0
:10234000012199547B684422012199547B684522DC
:10235000012199547B683D220121995400231800E2
:10236000BD4602B080BD80B582B000AF7860C04687
:10237000BD4602B080BD000080B584B000AF78607B
:1023800039603B68002B08D17B683E229B5CDBB246
:10239000013B5A1E9341DBB21FE03B68042B08D17E
:1023A0007B683F229B5CDBB2013B5A1E9341DBB250
:1023B00013E03B68082B08D17B6840229B5CDBB2B2
:1023C000013B5A1E9341DBB207E07B6841229B5CD4
:1023D000DBB2013B5A1E9341DBB2002B01D001233B
:1023E00064E03B68002B04D17B683E2202219954B3
:1023F00013E03B68042B04D17B683F2202219954EF
:102400000BE03B68082B04D17B68402202219954E1
:1024100003E07B684122022199547B681B6839687C
:102420000122180000F0C8FF7B681B68214A934214
:1024300009D07B681B68204A934204D07B681B68E4
:102440001E4A934201D1012300E00023002B08D053
:102450007B681B685A6C7B681B68802109020A43F1
:102460005A647B681B68134A934204D07B681B68DC
:10247000134A934211D17B681B689B680722134063
:10248000FB60FB68062B10D07B681B681A687B68B2
:102490001B6801210A431A6007E07B681B681A6801
:1024A0007B681B6801210A431A6000231800BD469F
:1024B00004B080BD002C01400044014000480140B0
:1024C0000004004080B582B000AF78607B68002BCC
:1024D00001D1012342E07B683D229B5CDBB2002BF3
:1024E00007D17B683C22002199547B68180000F0DA
:1024F00039F87B683D22022199547B681A687B6811
:1025000004331900100000F0E3FB7B684622012130
:1025100099547B683E22012199547B683F22012116
:1025200099547B684022012199547B684122012102
:1025300099547B684222012199547B6843220121EE
:1025400099547B684422012199547B6845220121DA
:1025500099547B683D220121995400231800BD46FF
:1025600002B080BD80B582B000AF7860C046BD4685
:1025700002B080BD80B584B000AF786039600F23B1
:10258000FB1800221A703B68002B04D17B683E22A6
:102590009B5CDBB213E03B68042B04D17B683F22D9
:1025A0009B5CDBB20BE03B68082B04D17B684022CC
:1025B0009B5CDBB203E07B6841229B5CDBB20E22BA
:1025C000BA1813703B68002B04D17B6842229B5CD5
:1025D000DBB213E03B68042B04D17B6843229B5C95
:1025E000DBB20BE03B68082B04D17B6844229B5C88
:1025F000DBB203E07B6845229B5CDBB20D217A18DD
:1026000013700E23FB181B78012B03D17B181B784A
:10261000012B01D00123A6E03B68002B04D17B688D
:102620003E220221995413E03B68042B04D17B68BD
:102630003F22022199540BE03B68082B04D17B68B0
:1026400040220221995403E07B68412202219954DF
:102650003B68002B04D17B6842220221995413E08D
:102660003B68042B04D17B684322022199540BE080
:102670003B68082B04D17B6844220221995403E073
:102680007B684522022199543B680C2B2AD03B6879
:102690000C2B30D83B68082B1BD03B68082B2AD862
:1026A0003B68002B03D03B68042B09D023E07B68F8
:1026B0001B68DA687B681B6802210A43DA601FE046
:1026C0007B681B68DA687B681B6804210A43DA6050
:1026D00016E07B681B68DA687B681B6808210A4380
:1026E000DA600DE07B681B68DA687B681B68102184
:1026F0000A43DA6004E00F23FB1801221A70C04677
:102700000F23FB181B78002B2AD17B681B683968C4
:102710000122180000F050FE7B681B68144A9342A7
:1027200004D07B681B68134A934211D17B681B68F5
:102730009B6807221340BB60BB68062B10D07B68E8
:102740001B681A687B681B6801210A431A6007E04E
:102750007B681B681A687B681B6801210A431A6042
:102760000F23FB181B781800BD4604B080BDC0467F
:10277000002C01400004004080B584B000AF7860B8
:102780007B681B68DB68FB607B681B681B69BB6040
:10279000BB680222134021D0FB68022213401DD0E7
:1027A0007B681B68032252421A617B6801221A77F8
:1027B0007B681B689B690322134004D07B68180068
:1027C000FFF7DAFB07E07B68180000F069FA7B6826
:1027D000180000F06DFA7B6800221A77BB680422AB
:1027E000134022D0FB68042213401ED07B681B6874
:1027F000052252421A617B6802221A777B681B68A5
:102800009A69C0239B00134004D07B681800FFF72F
:10281000B3FB07E07B68180000F042FA7B68180001
:1028200000F046FA7B6800221A77BB680822134042
:1028300021D0FB68082213401DD07B681B68092249
:1028400052421A617B6804221A777B681B68DB6935
:102850000322134004D07B681800FFF78DFB07E0CC
:102860007B68180000F01CFA7B68180000F020FA62
:102870007B6800221A77BB681022134022D0FB68C5
:10288000102213401ED07B681B68112252421A612D
:102890007B6808221A777B681B68DA69C0239B0073
:1028A000134004D07B681800FFF766FB07E07B68E5
:1028B000180000F0F5F97B68180000F0F9F97B6862
:1028C00000221A77BB68012213400CD0FB6801225A
:1028D000134008D07B681B68022252421A617B6851
:1028E000180000F0D5F9BB68802213400CD0FB68BB
:1028F0008022134008D07B681B68812252421A61F3
:102900007B68180000F083FDBB68402213400CD0A8
:10291000FB684022134008D07B681B68412252426A
:102920001A617B68180000F0CBF9BB6820221340C5
:102930000CD0FB682022134008D07B681B68212242
:1029400052421A617B68180000F059FDC046BD462E
:1029500004B080BD80B586B000AFF860B9607A6021
:102960001723FB1800221A70FB683C229B5C012B8A
:1029700001D102238CE0FB683C22012199547B6841
:10298000002B1BD1FB681868BB681968BB685A68C4
:10299000BB68DB6800F0F6FBFB681B689A69FB68A4
:1029A0001B680C218A439A61FB681B689969BB68A4
:1029B0009A68FB681B680A439A6162E07B68042B93
:1029C0001CD1FB681868BB681968BB685A68BB688B
:1029D000DB6800F029FCFB681B689A69FB681B68D0
:1029E0002D490A409A61FB681B689969BB689B681E
:1029F0001A02FB681B680A439A6142E07B68082B55
:102A00001BD1FB681868BB681968BB685A68BB684B
:102A1000DB6800F04BFCFB681B68DA69FB681B682D
:102A20000C218A43DA61FB681B68D969BB689A6824
:102A3000FB681B680A43DA6123E07B680C2B1CD11E
:102A4000FB681868BB681968BB685A68BB68DB68B4
:102A500000F06CFCFB681B68DA69FB681B680E49B8
:102A60000A40DA61FB681B68D969BB689B681A0277
:102A7000FB681B680A43DA6103E01723FB18012295
:102A80001A70FB683C22002199541723FB181B780D
:102A90001800BD4606B080BDFFF3FFFF80B586B0CD
:102AA00000AFF860B9607A601723FB1800221A7033
:102AB000FB683C229B5C012B01D10223ADE0FB684B
:102AC0003C22012199547B680C2B00D176E07B6875
:102AD0000C2B00D995E07B68082B4ED07B68082B27
:102AE00000D98EE07B68002B03D07B68042B21D0BB
:102AF00087E0FB681B68BA681100180000F062F9F3
:102B0000FB681B689A69FB681B6808210A439A6185
:102B1000FB681B689A69FB681B6804218A439A61F9
:102B2000FB681B689969BB681A69FB681B680A43E4
:102B30009A616BE0FB681B68BA681100180000F02E
:102B4000BFF9FB681B689A69FB681B688021090153
:102B50000A439A61FB681B689A69FB681B683149E4
:102B60000A409A61FB681B689969BB681B691A0275
:102B7000FB681B680A439A6148E0FB681B68BA68F7
:102B80001100180000F01AFAFB681B68DA69FB688C
:102B90001B6808210A43DA61FB681B68DA69FB6875
:102BA0001B6804218A43DA61FB681B68D969BB682A
:102BB0001A69FB681B680A43DA6127E0FB681B6837
:102BC000BA681100180000F079FAFB681B68DA692E
:102BD000FB681B68802109010A43DA61FB681B68F6
:102BE000DA69FB681B680F490A40DA61FB681B68F9
:102BF000D969BB681B691A02FB681B680A43DA6162
:102C000004E01723FB1801221A70C046FB683C221F
:102C1000002199541723FB181B781800BD4606B0F5
:102C200080BDC046FFFBFFFF80B584B000AF786079
:102C300039600023FB603B680C2B1ED03B680C2BDB
:102C400020D83B68082B13D03B68082B1AD83B6868
:102C5000002B03D03B68042B05D013E07B681B6876
:102C60005B6BFB600FE07B681B689B6BFB600AE0A3
:102C70007B681B68DB6BFB6005E07B681B681B6C7B
:102C8000FB6000E0C046FB681800BD4604B080BD94
:102C900080B582B000AF7860C046BD4602B080BD4E
:102CA00080B582B000AF7860C046BD4602B080BD3E
:102CB00080B582B000AF7860C046BD4602B080BD2E
:102CC00080B582B000AF7860C046BD4602B080BD1E
:102CD00080B584B000AF786039607B681B68FB60AA
:102CE0007B68324A934203D07B68314A934208D1D1
:102CF000FB6870229343FB603B685B68FA68134390
:102D0000FB607B68294A93420FD07B68284A934234
:102D10000BD07B68274A934207D07B68264A9342B0
:102D200003D07B68254A934208D1FB68244A1340AC
:102D3000FB603B68DB68FA681343FB60FB6880223A
:102D400093431A003B685B691343FB607B68FA6836
:102D50001A603B689A687B68DA623B681A687B682D
:102D60009A627B68114A934207D07B68124A934269
:102D700003D07B68114A934203D13B681A697B6890
:102D80001A637B6801225A617B681B690122134028
:102D9000012B06D17B681B69012293431A007B68D3
:102DA0001A61C046BD4604B080BDC046002C01403B
:102DB0000004004000200040004401400048014061
:102DC000FFFCFFFF80B586B000AF786039607B689C
:102DD0001B6A7B617B681B6A012293431A007B6834
:102DE0001A627B685B683B617B689B69FB60FB6880
:102DF00070229343FB60FB6803229343FB603B68B4
:102E00001B68FA681343FB607B69022293437B6172
:102E10003B689B687A6913437B617B68234A9342D2
:102E200007D07B68224A934203D07B68214A9342B1
:102E30000CD17B69082293437B613B68DB687A692C
:102E400013437B617B69042293437B617B68174A50
:102E5000934207D07B68164A934203D07B68154A99
:102E6000934211D13B69144A13403B613B69134AB9
:102E700013403B613B685B693A6913433B613B68C4
:102E80009B693A6913433B617B683A695A607B6886
:102E9000FA689A613B685A687B685A637B687A690A
:102EA0001A62C046BD4606B080BDC046002C014037
:102EB0000044014000480140FFFEFFFFFFFDFFFF0F
:102EC00080B586B000AF786039607B681B6A7B6133
:102ED0007B681B6A102293431A007B681A627B6826
:102EE0005B683B617B689B69FB60FB682C4A134015
:102EF000FB60FB682B4A1340FB603B681B681B02AE
:102F0000FA681343FB607B69202293437B613B6833
:102F10009B681B017A6913437B617B68224A934259
:102F20000DD17B69802293437B613B68DB681B0189
:102F30007A6913437B617B69402293437B617B68A1
:102F4000194A934207D07B68184A934203D07B68A2
:102F5000174A934213D13B69164A13403B613B69C0
:102F6000154A13403B613B685B699B003A69134318
:102F70003B613B689B699B003A6913433B617B68FB
:102F80003A695A607B68FA689A613B685A687B685C
:102F90009A637B687A691A62C046BD4606B080BDF6
:102FA000FF8FFFFFFFFCFFFF002C014000440140AA
:102FB00000480140FFFBFFFFFFF7FFFF80B586B031
:102FC00000AF786039607B681B6A7B617B681B6A35
:102FD000314A1A407B681A627B685B683B617B6898
:102FE000DB69FB60FB6870229343FB60FB68032294
:102FF0009343FB603B681B68FA681343FB607B6983
:10300000264A13407B613B689B681B027A69134325
:103010007B617B68224A93420DD17B69214A134030
:103020007B613B68DB681B027A6913437B617B69C8
:103030001D4A13407B617B68194A934207D07B6825
:103040001A4A934203D07B68194A934213D13B69D1
:10305000184A13403B613B69174A13403B613B6888
:103060005B691B013A6913433B613B689B691B0128
:103070003A6913433B617B683A695A607B68FA6836
:10308000DA613B685A687B68DA637B687A691A623E
:10309000C046BD4606B080BDFFFEFFFFFFFDFFFF3F
:1030A000002C0140FFF7FFFFFFFBFFFF0044014042
:1030B00000480140FFEFFFFFFFDFFFFF80B586B054
:1030C00000AF786039607B681B6A3B617B681B6A74
:1030D000244A1A407B681A627B685B687B617B6864
:1030E000DB69FB60FB68204A1340FB60FB681F4AFA
:1030F0001340FB603B681B681B02FA681343FB60CC
:103100003B691B4A13403B613B689B681B033A6960
:1031100013433B617B68174A934207D07B68164A8A
:10312000934203D07B68154A934209D17B69144AC4
:1031300013407B613B685B699B017A6913437B6148
:103140007B687A695A607B68FA68DA613B685A681A
:103150007B681A647B683A691A62C046BD4606B04D
:1031600080BDC046FFEFFFFFFF8FFFFFFFFCFFFFAB
:10317000FFDFFFFF002C01400044014000480140F8
:10318000FFBFFFFF80B586B000AFF860B9607A601E
:103190003B60FB681B6A3B61FB681B6A012293432F
:1031A0001A00FB681A62FB689B697B61FB681C4A1A
:1031B000934203D0FB681B4A934201D1012300E0F4
:1031C0000023002B08D07B69032293437B617A693B
:1031D0007B6813437B6103E07B69012213437B61BE
:1031E0007B69F02293437B613B681B01FF22134004
:1031F0007A6913437B613B690A2293433B61BB6855
:103200000A2213403A6913433B61FB687A699A6169
:10321000FB683A691A62C046BD4606B080BDC0462A
:10322000002C01400004004080B586B000AFF8607B
:10323000B9607A603B60FB681B6A7B61FB681B6A54
:10324000102293431A00FB681A62FB689B693B617A
:103250003B69144A13403B617B681B023A69134384
:103260003B613B69104A13403B613B681B031B04F5
:103270001B0C3A6913433B617B69A02293437B613A
:10328000BB681B01A02213407A6913437B61FB6872
:103290003A699A61FB687A691A62C046BD4606B00F
:1032A00080BDC046FFFCFFFFFF0FFFFF80B586B06B
:1032B00000AFF860B9607A603B60FB681B6A7B61B5
:1032C000FB681B6A174A1A40FB681A62FB68DB69D5
:1032D0003B613B69032293433B613A697B6813433B
:1032E0003B613B69F02293433B613B681B01FF223A
:1032F00013403A6913433B617B690B4A13407B617E
:10330000BB681A02A0231B0113407A6913437B6137
:10331000FB683A69DA61FB687A691A62C046BD46A1
:1033200006B080BDFFFEFFFFFFF5FFFF80B586B052
:1033300000AFF860B9607A603B60FB681B6A7B6134
:10334000FB681B6A184A1A40FB681A62FB68DB6953
:103350003B613B69154A13403B617B681B023A693C
:1033600013433B613B69124A13403B613B681B03BB
:103370001B041B0C3A6913433B617B690D4A1340E4
:103380007B61BB681A03A0231B0213407A691343B5
:103390007B61FB683A69DA61FB687A691A62C04648
:1033A000BD4606B080BDC046FFEFFFFFFFFCFFFF3C
:1033B000FF0FFFFFFF5FFFFF80B586B000AFF86033
:1033C000B9607A60BB681F22134001229A40130043
:1033D0007B61FB681B6A7A69D2431A40FB681A62F8
:1033E000FB681A6ABB681F210B40796899400B0083
:1033F0001A43FB681A62C046BD4606B080BD80B560
:1034000082B000AF7860C046BD4602B080BD80B5D6
:1034100082B000AF7860C046BD4602B080BD0000FB
:10342000F8B5C046F8BC08BC9E467047F8B5C04623
:08343000F8BC08BC9E46704781
:103438005A0400088603000870030008EC0300081B
:10344800700300082004000870030008EC0300085B
:10345800860300088603000820040008EC0300081F
:103468005C0300085C0300085C0300082A040008E9
:10347800860300088603000870030008C6040008D5
:10348800700300082004000870030008C604000840
:10349800860300088603000820040008C604000804
:1034A8005C0300085C0300085C03000800000000DF
:1034B80000000000010203040607080900000000DC
:1034C8000102030402030405060708090A0B0C0D90
:1034D8000E0F10100102030405060708090A0B0C59
:0434E8000D0E0F10A6
:0434EC00E9000008EB
:0434F000C10000080F
:0C34F40000127A0004000000010000003B
:040000050800227558
:00000001FF
